{
  "_format": "hh-sol-artifact-1",
  "contractName": "SGCollection",
  "sourceName": "contracts/SGCollection.sol",
  "abi": [
    {
      "inputs": [],
      "stateMutability": "nonpayable",
      "type": "constructor"
    },
    {
      "anonymous": false,
      "inputs": [
        {
          "indexed": true,
          "internalType": "address",
          "name": "owner",
          "type": "address"
        },
        {
          "indexed": true,
          "internalType": "address",
          "name": "approved",
          "type": "address"
        },
        {
          "indexed": true,
          "internalType": "uint256",
          "name": "tokenId",
          "type": "uint256"
        }
      ],
      "name": "Approval",
      "type": "event"
    },
    {
      "anonymous": false,
      "inputs": [
        {
          "indexed": true,
          "internalType": "address",
          "name": "owner",
          "type": "address"
        },
        {
          "indexed": true,
          "internalType": "address",
          "name": "operator",
          "type": "address"
        },
        {
          "indexed": false,
          "internalType": "bool",
          "name": "approved",
          "type": "bool"
        }
      ],
      "name": "ApprovalForAll",
      "type": "event"
    },
    {
      "anonymous": false,
      "inputs": [
        {
          "indexed": true,
          "internalType": "address",
          "name": "previousOwner",
          "type": "address"
        },
        {
          "indexed": true,
          "internalType": "address",
          "name": "newOwner",
          "type": "address"
        }
      ],
      "name": "OwnershipTransferred",
      "type": "event"
    },
    {
      "anonymous": false,
      "inputs": [
        {
          "indexed": true,
          "internalType": "address",
          "name": "from",
          "type": "address"
        },
        {
          "indexed": true,
          "internalType": "address",
          "name": "to",
          "type": "address"
        },
        {
          "indexed": true,
          "internalType": "uint256",
          "name": "tokenId",
          "type": "uint256"
        }
      ],
      "name": "Transfer",
      "type": "event"
    },
    {
      "inputs": [
        {
          "internalType": "address",
          "name": "to",
          "type": "address"
        },
        {
          "internalType": "uint256",
          "name": "tokenId",
          "type": "uint256"
        }
      ],
      "name": "approve",
      "outputs": [],
      "stateMutability": "nonpayable",
      "type": "function"
    },
    {
      "inputs": [
        {
          "internalType": "address",
          "name": "owner",
          "type": "address"
        }
      ],
      "name": "balanceOf",
      "outputs": [
        {
          "internalType": "uint256",
          "name": "",
          "type": "uint256"
        }
      ],
      "stateMutability": "view",
      "type": "function"
    },
    {
      "inputs": [
        {
          "internalType": "uint256",
          "name": "tokenId",
          "type": "uint256"
        }
      ],
      "name": "getApproved",
      "outputs": [
        {
          "internalType": "address",
          "name": "",
          "type": "address"
        }
      ],
      "stateMutability": "view",
      "type": "function"
    },
    {
      "inputs": [
        {
          "internalType": "address",
          "name": "owner",
          "type": "address"
        },
        {
          "internalType": "address",
          "name": "operator",
          "type": "address"
        }
      ],
      "name": "isApprovedForAll",
      "outputs": [
        {
          "internalType": "bool",
          "name": "",
          "type": "bool"
        }
      ],
      "stateMutability": "view",
      "type": "function"
    },
    {
      "inputs": [],
      "name": "name",
      "outputs": [
        {
          "internalType": "string",
          "name": "",
          "type": "string"
        }
      ],
      "stateMutability": "view",
      "type": "function"
    },
    {
      "inputs": [],
      "name": "owner",
      "outputs": [
        {
          "internalType": "address",
          "name": "",
          "type": "address"
        }
      ],
      "stateMutability": "view",
      "type": "function"
    },
    {
      "inputs": [
        {
          "internalType": "uint256",
          "name": "tokenId",
          "type": "uint256"
        }
      ],
      "name": "ownerOf",
      "outputs": [
        {
          "internalType": "address",
          "name": "",
          "type": "address"
        }
      ],
      "stateMutability": "view",
      "type": "function"
    },
    {
      "inputs": [],
      "name": "owners",
      "outputs": [
        {
          "internalType": "address",
          "name": "",
          "type": "address"
        }
      ],
      "stateMutability": "view",
      "type": "function"
    },
    {
      "inputs": [],
      "name": "renounceOwnership",
      "outputs": [],
      "stateMutability": "nonpayable",
      "type": "function"
    },
    {
      "inputs": [
        {
          "internalType": "string",
          "name": "uri",
          "type": "string"
        }
      ],
      "name": "safeMint",
      "outputs": [],
      "stateMutability": "payable",
      "type": "function"
    },
    {
      "inputs": [
        {
          "internalType": "address",
          "name": "from",
          "type": "address"
        },
        {
          "internalType": "address",
          "name": "to",
          "type": "address"
        },
        {
          "internalType": "uint256",
          "name": "tokenId",
          "type": "uint256"
        }
      ],
      "name": "safeTransferFrom",
      "outputs": [],
      "stateMutability": "nonpayable",
      "type": "function"
    },
    {
      "inputs": [
        {
          "internalType": "address",
          "name": "from",
          "type": "address"
        },
        {
          "internalType": "address",
          "name": "to",
          "type": "address"
        },
        {
          "internalType": "uint256",
          "name": "tokenId",
          "type": "uint256"
        },
        {
          "internalType": "bytes",
          "name": "data",
          "type": "bytes"
        }
      ],
      "name": "safeTransferFrom",
      "outputs": [],
      "stateMutability": "nonpayable",
      "type": "function"
    },
    {
      "inputs": [
        {
          "internalType": "address",
          "name": "operator",
          "type": "address"
        },
        {
          "internalType": "bool",
          "name": "approved",
          "type": "bool"
        }
      ],
      "name": "setApprovalForAll",
      "outputs": [],
      "stateMutability": "nonpayable",
      "type": "function"
    },
    {
      "inputs": [
        {
          "internalType": "bytes4",
          "name": "interfaceId",
          "type": "bytes4"
        }
      ],
      "name": "supportsInterface",
      "outputs": [
        {
          "internalType": "bool",
          "name": "",
          "type": "bool"
        }
      ],
      "stateMutability": "view",
      "type": "function"
    },
    {
      "inputs": [],
      "name": "symbol",
      "outputs": [
        {
          "internalType": "string",
          "name": "",
          "type": "string"
        }
      ],
      "stateMutability": "view",
      "type": "function"
    },
    {
      "inputs": [
        {
          "internalType": "uint256",
          "name": "index",
          "type": "uint256"
        }
      ],
      "name": "tokenByIndex",
      "outputs": [
        {
          "internalType": "uint256",
          "name": "",
          "type": "uint256"
        }
      ],
      "stateMutability": "view",
      "type": "function"
    },
    {
      "inputs": [
        {
          "internalType": "address",
          "name": "owner",
          "type": "address"
        },
        {
          "internalType": "uint256",
          "name": "index",
          "type": "uint256"
        }
      ],
      "name": "tokenOfOwnerByIndex",
      "outputs": [
        {
          "internalType": "uint256",
          "name": "",
          "type": "uint256"
        }
      ],
      "stateMutability": "view",
      "type": "function"
    },
    {
      "inputs": [
        {
          "internalType": "uint256",
          "name": "tokenId",
          "type": "uint256"
        }
      ],
      "name": "tokenURI",
      "outputs": [
        {
          "internalType": "string",
          "name": "",
          "type": "string"
        }
      ],
      "stateMutability": "view",
      "type": "function"
    },
    {
      "inputs": [],
      "name": "totalSupply",
      "outputs": [
        {
          "internalType": "uint256",
          "name": "",
          "type": "uint256"
        }
      ],
      "stateMutability": "view",
      "type": "function"
    },
    {
      "inputs": [
        {
          "internalType": "address",
          "name": "from",
          "type": "address"
        },
        {
          "internalType": "address",
          "name": "to",
          "type": "address"
        },
        {
          "internalType": "uint256",
          "name": "tokenId",
          "type": "uint256"
        }
      ],
      "name": "transferFrom",
      "outputs": [],
      "stateMutability": "nonpayable",
      "type": "function"
    },
    {
      "inputs": [
        {
          "internalType": "address",
          "name": "newOwner",
          "type": "address"
        }
      ],
      "name": "transferOwnership",
      "outputs": [],
      "stateMutability": "nonpayable",
      "type": "function"
    }
  ],
  "bytecode": "0x60806040523480156200001157600080fd5b506040518060400160405280600c81526020017f5347436f6c6c656374696f6e00000000000000000000000000000000000000008152506040518060400160405280600381526020017f53474a0000000000000000000000000000000000000000000000000000000000815250816000908051906020019062000096929190620001e7565b508060019080519060200190620000af929190620001e7565b505050620000d2620000c66200011960201b60201c565b6200012160201b60201c565b33600d60006101000a81548173ffffffffffffffffffffffffffffffffffffffff021916908373ffffffffffffffffffffffffffffffffffffffff160217905550620002fc565b600033905090565b6000600b60009054906101000a900473ffffffffffffffffffffffffffffffffffffffff16905081600b60006101000a81548173ffffffffffffffffffffffffffffffffffffffff021916908373ffffffffffffffffffffffffffffffffffffffff1602179055508173ffffffffffffffffffffffffffffffffffffffff168173ffffffffffffffffffffffffffffffffffffffff167f8be0079c531659141344cd1fd0a4f28419497f9722a3daafe3b4186f6b6457e060405160405180910390a35050565b828054620001f590620002c6565b90600052602060002090601f01602090048101928262000219576000855562000265565b82601f106200023457805160ff191683800117855562000265565b8280016001018555821562000265579182015b828111156200026457825182559160200191906001019062000247565b5b50905062000274919062000278565b5090565b5b808211156200029357600081600090555060010162000279565b5090565b7f4e487b7100000000000000000000000000000000000000000000000000000000600052602260045260246000fd5b60006002820490506001821680620002df57607f821691505b60208210811415620002f657620002f562000297565b5b50919050565b613713806200030c6000396000f3fe60806040526004361061012a5760003560e01c8063695850fb116100ab578063a22cb4651161006f578063a22cb465146103f7578063affe39c114610420578063b88d4fde1461044b578063c87b56dd14610474578063e985e9c5146104b1578063f2fde38b146104ee5761012a565b8063695850fb1461033157806370a082311461034d578063715018a61461038a5780638da5cb5b146103a157806395d89b41146103cc5761012a565b806323b872dd116100f257806323b872dd146102285780632f745c591461025157806342842e0e1461028e5780634f6ccce7146102b75780636352211e146102f45761012a565b806301ffc9a71461012f57806306fdde031461016c578063081812fc14610197578063095ea7b3146101d457806318160ddd146101fd575b600080fd5b34801561013b57600080fd5b5061015660048036038101906101519190612413565b610517565b604051610163919061245b565b60405180910390f35b34801561017857600080fd5b50610181610529565b60405161018e919061250f565b60405180910390f35b3480156101a357600080fd5b506101be60048036038101906101b99190612567565b6105bb565b6040516101cb91906125d5565b60405180910390f35b3480156101e057600080fd5b506101fb60048036038101906101f6919061261c565b610601565b005b34801561020957600080fd5b50610212610719565b60405161021f919061266b565b60405180910390f35b34801561023457600080fd5b5061024f600480360381019061024a9190612686565b610726565b005b34801561025d57600080fd5b506102786004803603810190610273919061261c565b610786565b604051610285919061266b565b60405180910390f35b34801561029a57600080fd5b506102b560048036038101906102b09190612686565b61082b565b005b3480156102c357600080fd5b506102de60048036038101906102d99190612567565b61084b565b6040516102eb919061266b565b60405180910390f35b34801561030057600080fd5b5061031b60048036038101906103169190612567565b6108bc565b60405161032891906125d5565b60405180910390f35b61034b6004803603810190610346919061280e565b61096e565b005b34801561035957600080fd5b50610374600480360381019061036f9190612857565b610aa1565b604051610381919061266b565b60405180910390f35b34801561039657600080fd5b5061039f610b59565b005b3480156103ad57600080fd5b506103b6610b6d565b6040516103c391906125d5565b60405180910390f35b3480156103d857600080fd5b506103e1610b97565b6040516103ee919061250f565b60405180910390f35b34801561040357600080fd5b5061041e600480360381019061041991906128b0565b610c29565b005b34801561042c57600080fd5b50610435610c3f565b60405161044291906125d5565b60405180910390f35b34801561045757600080fd5b50610472600480360381019061046d9190612991565b610c65565b005b34801561048057600080fd5b5061049b60048036038101906104969190612567565b610cc7565b6040516104a8919061250f565b60405180910390f35b3480156104bd57600080fd5b506104d860048036038101906104d39190612a14565b610cd9565b6040516104e5919061245b565b60405180910390f35b3480156104fa57600080fd5b5061051560048036038101906105109190612857565b610d6d565b005b600061052282610df1565b9050919050565b60606000805461053890612a83565b80601f016020809104026020016040519081016040528092919081815260200182805461056490612a83565b80156105b15780601f10610586576101008083540402835291602001916105b1565b820191906000526020600020905b81548152906001019060200180831161059457829003601f168201915b5050505050905090565b60006105c682610e6b565b6004600083815260200190815260200160002060009054906101000a900473ffffffffffffffffffffffffffffffffffffffff169050919050565b600061060c826108bc565b90508073ffffffffffffffffffffffffffffffffffffffff168373ffffffffffffffffffffffffffffffffffffffff16141561067d576040517f08c379a000000000000000000000000000000000000000000000000000000000815260040161067490612b27565b60405180910390fd5b8073ffffffffffffffffffffffffffffffffffffffff1661069c610eb6565b73ffffffffffffffffffffffffffffffffffffffff1614806106cb57506106ca816106c5610eb6565b610cd9565b5b61070a576040517f08c379a000000000000000000000000000000000000000000000000000000000815260040161070190612bb9565b60405180910390fd5b6107148383610ebe565b505050565b6000600880549050905090565b610737610731610eb6565b82610f77565b610776576040517f08c379a000000000000000000000000000000000000000000000000000000000815260040161076d90612c4b565b60405180910390fd5b61078183838361100c565b505050565b600061079183610aa1565b82106107d2576040517f08c379a00000000000000000000000000000000000000000000000000000000081526004016107c990612cdd565b60405180910390fd5b600660008473ffffffffffffffffffffffffffffffffffffffff1673ffffffffffffffffffffffffffffffffffffffff168152602001908152602001600020600083815260200190815260200160002054905092915050565b61084683838360405180602001604052806000815250610c65565b505050565b6000610855610719565b8210610896576040517f08c379a000000000000000000000000000000000000000000000000000000000815260040161088d90612d6f565b60405180910390fd5b600882815481106108aa576108a9612d8f565b5b90600052602060002001549050919050565b6000806002600084815260200190815260200160002060009054906101000a900473ffffffffffffffffffffffffffffffffffffffff169050600073ffffffffffffffffffffffffffffffffffffffff168173ffffffffffffffffffffffffffffffffffffffff161415610965576040517f08c379a000000000000000000000000000000000000000000000000000000000815260040161095c90612e0a565b60405180910390fd5b80915050919050565b67016345785d8a00003410156109b9576040517f08c379a00000000000000000000000000000000000000000000000000000000081526004016109b090612e9c565b60405180910390fd5b6109c3600c611273565b60006109cf600c611289565b9050600d60009054906101000a900473ffffffffffffffffffffffffffffffffffffffff1673ffffffffffffffffffffffffffffffffffffffff166108fc349081150290604051600060405180830381858888f19350505050158015610a39573d6000803e3d6000fd5b50610a66600d60009054906101000a900473ffffffffffffffffffffffffffffffffffffffff1682611297565b610a7081836112b5565b610a9d600d60009054906101000a900473ffffffffffffffffffffffffffffffffffffffff16338361100c565b5050565b60008073ffffffffffffffffffffffffffffffffffffffff168273ffffffffffffffffffffffffffffffffffffffff161415610b12576040517f08c379a0000000000000000000000000000000000000000000000000000000008152600401610b0990612f2e565b60405180910390fd5b600360008373ffffffffffffffffffffffffffffffffffffffff1673ffffffffffffffffffffffffffffffffffffffff168152602001908152602001600020549050919050565b610b61611329565b610b6b60006113a7565b565b6000600b60009054906101000a900473ffffffffffffffffffffffffffffffffffffffff16905090565b606060018054610ba690612a83565b80601f0160208091040260200160405190810160405280929190818152602001828054610bd290612a83565b8015610c1f5780601f10610bf457610100808354040283529160200191610c1f565b820191906000526020600020905b815481529060010190602001808311610c0257829003601f168201915b5050505050905090565b610c3b610c34610eb6565b838361146d565b5050565b600d60009054906101000a900473ffffffffffffffffffffffffffffffffffffffff1681565b610c76610c70610eb6565b83610f77565b610cb5576040517f08c379a0000000000000000000000000000000000000000000000000000000008152600401610cac90612c4b565b60405180910390fd5b610cc1848484846115da565b50505050565b6060610cd282611636565b9050919050565b6000600560008473ffffffffffffffffffffffffffffffffffffffff1673ffffffffffffffffffffffffffffffffffffffff16815260200190815260200160002060008373ffffffffffffffffffffffffffffffffffffffff1673ffffffffffffffffffffffffffffffffffffffff16815260200190815260200160002060009054906101000a900460ff16905092915050565b610d75611329565b600073ffffffffffffffffffffffffffffffffffffffff168173ffffffffffffffffffffffffffffffffffffffff161415610de5576040517f08c379a0000000000000000000000000000000000000000000000000000000008152600401610ddc90612fc0565b60405180910390fd5b610dee816113a7565b50565b60007f780e9d63000000000000000000000000000000000000000000000000000000007bffffffffffffffffffffffffffffffffffffffffffffffffffffffff1916827bffffffffffffffffffffffffffffffffffffffffffffffffffffffff19161480610e645750610e6382611749565b5b9050919050565b610e748161182b565b610eb3576040517f08c379a0000000000000000000000000000000000000000000000000000000008152600401610eaa90612e0a565b60405180910390fd5b50565b600033905090565b816004600083815260200190815260200160002060006101000a81548173ffffffffffffffffffffffffffffffffffffffff021916908373ffffffffffffffffffffffffffffffffffffffff160217905550808273ffffffffffffffffffffffffffffffffffffffff16610f31836108bc565b73ffffffffffffffffffffffffffffffffffffffff167f8c5be1e5ebec7d5bd14f71427d1e84f3dd0314c0f7b2291e5b200ac8c7c3b92560405160405180910390a45050565b600080610f83836108bc565b90508073ffffffffffffffffffffffffffffffffffffffff168473ffffffffffffffffffffffffffffffffffffffff161480610fc55750610fc48185610cd9565b5b8061100357508373ffffffffffffffffffffffffffffffffffffffff16610feb846105bb565b73ffffffffffffffffffffffffffffffffffffffff16145b91505092915050565b8273ffffffffffffffffffffffffffffffffffffffff1661102c826108bc565b73ffffffffffffffffffffffffffffffffffffffff1614611082576040517f08c379a000000000000000000000000000000000000000000000000000000000815260040161107990613052565b60405180910390fd5b600073ffffffffffffffffffffffffffffffffffffffff168273ffffffffffffffffffffffffffffffffffffffff1614156110f2576040517f08c379a00000000000000000000000000000000000000000000000000000000081526004016110e9906130e4565b60405180910390fd5b6110fd838383611897565b611108600082610ebe565b6001600360008573ffffffffffffffffffffffffffffffffffffffff1673ffffffffffffffffffffffffffffffffffffffff16815260200190815260200160002060008282546111589190613133565b925050819055506001600360008473ffffffffffffffffffffffffffffffffffffffff1673ffffffffffffffffffffffffffffffffffffffff16815260200190815260200160002060008282546111af9190613167565b92505081905550816002600083815260200190815260200160002060006101000a81548173ffffffffffffffffffffffffffffffffffffffff021916908373ffffffffffffffffffffffffffffffffffffffff160217905550808273ffffffffffffffffffffffffffffffffffffffff168473ffffffffffffffffffffffffffffffffffffffff167fddf252ad1be2c89b69c2b068fc378daa952ba7f163c4a11628f55a4df523b3ef60405160405180910390a461126e8383836118a7565b505050565b6001816000016000828254019250508190555050565b600081600001549050919050565b6112b18282604051806020016040528060008152506118ac565b5050565b6112be8261182b565b6112fd576040517f08c379a00000000000000000000000000000000000000000000000000000000081526004016112f49061322f565b60405180910390fd5b80600a60008481526020019081526020016000209080519060200190611324929190612304565b505050565b611331610eb6565b73ffffffffffffffffffffffffffffffffffffffff1661134f610b6d565b73ffffffffffffffffffffffffffffffffffffffff16146113a5576040517f08c379a000000000000000000000000000000000000000000000000000000000815260040161139c9061329b565b60405180910390fd5b565b6000600b60009054906101000a900473ffffffffffffffffffffffffffffffffffffffff16905081600b60006101000a81548173ffffffffffffffffffffffffffffffffffffffff021916908373ffffffffffffffffffffffffffffffffffffffff1602179055508173ffffffffffffffffffffffffffffffffffffffff168173ffffffffffffffffffffffffffffffffffffffff167f8be0079c531659141344cd1fd0a4f28419497f9722a3daafe3b4186f6b6457e060405160405180910390a35050565b8173ffffffffffffffffffffffffffffffffffffffff168373ffffffffffffffffffffffffffffffffffffffff1614156114dc576040517f08c379a00000000000000000000000000000000000000000000000000000000081526004016114d390613307565b60405180910390fd5b80600560008573ffffffffffffffffffffffffffffffffffffffff1673ffffffffffffffffffffffffffffffffffffffff16815260200190815260200160002060008473ffffffffffffffffffffffffffffffffffffffff1673ffffffffffffffffffffffffffffffffffffffff16815260200190815260200160002060006101000a81548160ff0219169083151502179055508173ffffffffffffffffffffffffffffffffffffffff168373ffffffffffffffffffffffffffffffffffffffff167f17307eab39ab6107e8899845ad3d59bd9653f200f220920489ca2b5937696c31836040516115cd919061245b565b60405180910390a3505050565b6115e584848461100c565b6115f184848484611907565b611630576040517f08c379a000000000000000000000000000000000000000000000000000000000815260040161162790613399565b60405180910390fd5b50505050565b606061164182610e6b565b6000600a6000848152602001908152602001600020805461166190612a83565b80601f016020809104026020016040519081016040528092919081815260200182805461168d90612a83565b80156116da5780601f106116af576101008083540402835291602001916116da565b820191906000526020600020905b8154815290600101906020018083116116bd57829003601f168201915b5050505050905060006116eb611a9e565b9050600081511415611701578192505050611744565b60008251111561173657808260405160200161171e9291906133f5565b60405160208183030381529060405292505050611744565b61173f84611ab5565b925050505b919050565b60007f80ac58cd000000000000000000000000000000000000000000000000000000007bffffffffffffffffffffffffffffffffffffffffffffffffffffffff1916827bffffffffffffffffffffffffffffffffffffffffffffffffffffffff1916148061181457507f5b5e139f000000000000000000000000000000000000000000000000000000007bffffffffffffffffffffffffffffffffffffffffffffffffffffffff1916827bffffffffffffffffffffffffffffffffffffffffffffffffffffffff1916145b80611824575061182382611b1d565b5b9050919050565b60008073ffffffffffffffffffffffffffffffffffffffff166002600084815260200190815260200160002060009054906101000a900473ffffffffffffffffffffffffffffffffffffffff1673ffffffffffffffffffffffffffffffffffffffff1614159050919050565b6118a2838383611b87565b505050565b505050565b6118b68383611c9b565b6118c36000848484611907565b611902576040517f08c379a00000000000000000000000000000000000000000000000000000000081526004016118f990613399565b60405180910390fd5b505050565b60006119288473ffffffffffffffffffffffffffffffffffffffff16611e75565b15611a91578373ffffffffffffffffffffffffffffffffffffffff1663150b7a02611951610eb6565b8786866040518563ffffffff1660e01b8152600401611973949392919061346e565b602060405180830381600087803b15801561198d57600080fd5b505af19250505080156119be57506040513d601f19601f820116820180604052508101906119bb91906134cf565b60015b611a41573d80600081146119ee576040519150601f19603f3d011682016040523d82523d6000602084013e6119f3565b606091505b50600081511415611a39576040517f08c379a0000000000000000000000000000000000000000000000000000000008152600401611a3090613399565b60405180910390fd5b805181602001fd5b63150b7a0260e01b7bffffffffffffffffffffffffffffffffffffffffffffffffffffffff1916817bffffffffffffffffffffffffffffffffffffffffffffffffffffffff191614915050611a96565b600190505b949350505050565b606060405180602001604052806000815250905090565b6060611ac082610e6b565b6000611aca611a9e565b90506000815111611aea5760405180602001604052806000815250611b15565b80611af484611e98565b604051602001611b059291906133f5565b6040516020818303038152906040525b915050919050565b60007f01ffc9a7000000000000000000000000000000000000000000000000000000007bffffffffffffffffffffffffffffffffffffffffffffffffffffffff1916827bffffffffffffffffffffffffffffffffffffffffffffffffffffffff1916149050919050565b611b92838383611ff9565b600073ffffffffffffffffffffffffffffffffffffffff168373ffffffffffffffffffffffffffffffffffffffff161415611bd557611bd081611ffe565b611c14565b8173ffffffffffffffffffffffffffffffffffffffff168373ffffffffffffffffffffffffffffffffffffffff1614611c1357611c128382612047565b5b5b600073ffffffffffffffffffffffffffffffffffffffff168273ffffffffffffffffffffffffffffffffffffffff161415611c5757611c52816121b4565b611c96565b8273ffffffffffffffffffffffffffffffffffffffff168273ffffffffffffffffffffffffffffffffffffffff1614611c9557611c948282612285565b5b5b505050565b600073ffffffffffffffffffffffffffffffffffffffff168273ffffffffffffffffffffffffffffffffffffffff161415611d0b576040517f08c379a0000000000000000000000000000000000000000000000000000000008152600401611d0290613548565b60405180910390fd5b611d148161182b565b15611d54576040517f08c379a0000000000000000000000000000000000000000000000000000000008152600401611d4b906135b4565b60405180910390fd5b611d6060008383611897565b6001600360008473ffffffffffffffffffffffffffffffffffffffff1673ffffffffffffffffffffffffffffffffffffffff1681526020019081526020016000206000828254611db09190613167565b92505081905550816002600083815260200190815260200160002060006101000a81548173ffffffffffffffffffffffffffffffffffffffff021916908373ffffffffffffffffffffffffffffffffffffffff160217905550808273ffffffffffffffffffffffffffffffffffffffff16600073ffffffffffffffffffffffffffffffffffffffff167fddf252ad1be2c89b69c2b068fc378daa952ba7f163c4a11628f55a4df523b3ef60405160405180910390a4611e71600083836118a7565b5050565b6000808273ffffffffffffffffffffffffffffffffffffffff163b119050919050565b60606000821415611ee0576040518060400160405280600181526020017f30000000000000000000000000000000000000000000000000000000000000008152509050611ff4565b600082905060005b60008214611f12578080611efb906135d4565b915050600a82611f0b919061364c565b9150611ee8565b60008167ffffffffffffffff811115611f2e57611f2d6126e3565b5b6040519080825280601f01601f191660200182016040528015611f605781602001600182028036833780820191505090505b5090505b60008514611fed57600182611f799190613133565b9150600a85611f88919061367d565b6030611f949190613167565b60f81b818381518110611faa57611fa9612d8f565b5b60200101907effffffffffffffffffffffffffffffffffffffffffffffffffffffffffffff1916908160001a905350600a85611fe6919061364c565b9450611f64565b8093505050505b919050565b505050565b6008805490506009600083815260200190815260200160002081905550600881908060018154018082558091505060019003906000526020600020016000909190919091505550565b6000600161205484610aa1565b61205e9190613133565b9050600060076000848152602001908152602001600020549050818114612143576000600660008673ffffffffffffffffffffffffffffffffffffffff1673ffffffffffffffffffffffffffffffffffffffff168152602001908152602001600020600084815260200190815260200160002054905080600660008773ffffffffffffffffffffffffffffffffffffffff1673ffffffffffffffffffffffffffffffffffffffff168152602001908152602001600020600084815260200190815260200160002081905550816007600083815260200190815260200160002081905550505b6007600084815260200190815260200160002060009055600660008573ffffffffffffffffffffffffffffffffffffffff1673ffffffffffffffffffffffffffffffffffffffff16815260200190815260200160002060008381526020019081526020016000206000905550505050565b600060016008805490506121c89190613133565b90506000600960008481526020019081526020016000205490506000600883815481106121f8576121f7612d8f565b5b90600052602060002001549050806008838154811061221a57612219612d8f565b5b906000526020600020018190555081600960008381526020019081526020016000208190555060096000858152602001908152602001600020600090556008805480612269576122686136ae565b5b6001900381819060005260206000200160009055905550505050565b600061229083610aa1565b905081600660008573ffffffffffffffffffffffffffffffffffffffff1673ffffffffffffffffffffffffffffffffffffffff168152602001908152602001600020600083815260200190815260200160002081905550806007600084815260200190815260200160002081905550505050565b82805461231090612a83565b90600052602060002090601f0160209004810192826123325760008555612379565b82601f1061234b57805160ff1916838001178555612379565b82800160010185558215612379579182015b8281111561237857825182559160200191906001019061235d565b5b509050612386919061238a565b5090565b5b808211156123a357600081600090555060010161238b565b5090565b6000604051905090565b600080fd5b600080fd5b60007fffffffff0000000000000000000000000000000000000000000000000000000082169050919050565b6123f0816123bb565b81146123fb57600080fd5b50565b60008135905061240d816123e7565b92915050565b600060208284031215612429576124286123b1565b5b6000612437848285016123fe565b91505092915050565b60008115159050919050565b61245581612440565b82525050565b6000602082019050612470600083018461244c565b92915050565b600081519050919050565b600082825260208201905092915050565b60005b838110156124b0578082015181840152602081019050612495565b838111156124bf576000848401525b50505050565b6000601f19601f8301169050919050565b60006124e182612476565b6124eb8185612481565b93506124fb818560208601612492565b612504816124c5565b840191505092915050565b6000602082019050818103600083015261252981846124d6565b905092915050565b6000819050919050565b61254481612531565b811461254f57600080fd5b50565b6000813590506125618161253b565b92915050565b60006020828403121561257d5761257c6123b1565b5b600061258b84828501612552565b91505092915050565b600073ffffffffffffffffffffffffffffffffffffffff82169050919050565b60006125bf82612594565b9050919050565b6125cf816125b4565b82525050565b60006020820190506125ea60008301846125c6565b92915050565b6125f9816125b4565b811461260457600080fd5b50565b600081359050612616816125f0565b92915050565b60008060408385031215612633576126326123b1565b5b600061264185828601612607565b925050602061265285828601612552565b9150509250929050565b61266581612531565b82525050565b6000602082019050612680600083018461265c565b92915050565b60008060006060848603121561269f5761269e6123b1565b5b60006126ad86828701612607565b93505060206126be86828701612607565b92505060406126cf86828701612552565b9150509250925092565b600080fd5b600080fd5b7f4e487b7100000000000000000000000000000000000000000000000000000000600052604160045260246000fd5b61271b826124c5565b810181811067ffffffffffffffff8211171561273a576127396126e3565b5b80604052505050565b600061274d6123a7565b90506127598282612712565b919050565b600067ffffffffffffffff821115612779576127786126e3565b5b612782826124c5565b9050602081019050919050565b82818337600083830152505050565b60006127b16127ac8461275e565b612743565b9050828152602081018484840111156127cd576127cc6126de565b5b6127d884828561278f565b509392505050565b600082601f8301126127f5576127f46126d9565b5b813561280584826020860161279e565b91505092915050565b600060208284031215612824576128236123b1565b5b600082013567ffffffffffffffff811115612842576128416123b6565b5b61284e848285016127e0565b91505092915050565b60006020828403121561286d5761286c6123b1565b5b600061287b84828501612607565b91505092915050565b61288d81612440565b811461289857600080fd5b50565b6000813590506128aa81612884565b92915050565b600080604083850312156128c7576128c66123b1565b5b60006128d585828601612607565b92505060206128e68582860161289b565b9150509250929050565b600067ffffffffffffffff82111561290b5761290a6126e3565b5b612914826124c5565b9050602081019050919050565b600061293461292f846128f0565b612743565b9050828152602081018484840111156129505761294f6126de565b5b61295b84828561278f565b509392505050565b600082601f830112612978576129776126d9565b5b8135612988848260208601612921565b91505092915050565b600080600080608085870312156129ab576129aa6123b1565b5b60006129b987828801612607565b94505060206129ca87828801612607565b93505060406129db87828801612552565b925050606085013567ffffffffffffffff8111156129fc576129fb6123b6565b5b612a0887828801612963565b91505092959194509250565b60008060408385031215612a2b57612a2a6123b1565b5b6000612a3985828601612607565b9250506020612a4a85828601612607565b9150509250929050565b7f4e487b7100000000000000000000000000000000000000000000000000000000600052602260045260246000fd5b60006002820490506001821680612a9b57607f821691505b60208210811415612aaf57612aae612a54565b5b50919050565b7f4552433732313a20617070726f76616c20746f2063757272656e74206f776e6560008201527f7200000000000000000000000000000000000000000000000000000000000000602082015250565b6000612b11602183612481565b9150612b1c82612ab5565b604082019050919050565b60006020820190508181036000830152612b4081612b04565b9050919050565b7f4552433732313a20617070726f76652063616c6c6572206973206e6f7420746f60008201527f6b656e206f776e6572206e6f7220617070726f76656420666f7220616c6c0000602082015250565b6000612ba3603e83612481565b9150612bae82612b47565b604082019050919050565b60006020820190508181036000830152612bd281612b96565b9050919050565b7f4552433732313a2063616c6c6572206973206e6f7420746f6b656e206f776e6560008201527f72206e6f7220617070726f766564000000000000000000000000000000000000602082015250565b6000612c35602e83612481565b9150612c4082612bd9565b604082019050919050565b60006020820190508181036000830152612c6481612c28565b9050919050565b7f455243373231456e756d657261626c653a206f776e657220696e646578206f7560008201527f74206f6620626f756e6473000000000000000000000000000000000000000000602082015250565b6000612cc7602b83612481565b9150612cd282612c6b565b604082019050919050565b60006020820190508181036000830152612cf681612cba565b9050919050565b7f455243373231456e756d657261626c653a20676c6f62616c20696e646578206f60008201527f7574206f6620626f756e64730000000000000000000000000000000000000000602082015250565b6000612d59602c83612481565b9150612d6482612cfd565b604082019050919050565b60006020820190508181036000830152612d8881612d4c565b9050919050565b7f4e487b7100000000000000000000000000000000000000000000000000000000600052603260045260246000fd5b7f4552433732313a20696e76616c696420746f6b656e2049440000000000000000600082015250565b6000612df4601883612481565b9150612dff82612dbe565b602082019050919050565b60006020820190508181036000830152612e2381612de7565b9050919050565b7f596f752063616e206d696e74204e46542062792073656e64696e67203120457460008201527f6865720000000000000000000000000000000000000000000000000000000000602082015250565b6000612e86602383612481565b9150612e9182612e2a565b604082019050919050565b60006020820190508181036000830152612eb581612e79565b9050919050565b7f4552433732313a2061646472657373207a65726f206973206e6f74206120766160008201527f6c6964206f776e65720000000000000000000000000000000000000000000000602082015250565b6000612f18602983612481565b9150612f2382612ebc565b604082019050919050565b60006020820190508181036000830152612f4781612f0b565b9050919050565b7f4f776e61626c653a206e6577206f776e657220697320746865207a65726f206160008201527f6464726573730000000000000000000000000000000000000000000000000000602082015250565b6000612faa602683612481565b9150612fb582612f4e565b604082019050919050565b60006020820190508181036000830152612fd981612f9d565b9050919050565b7f4552433732313a207472616e736665722066726f6d20696e636f72726563742060008201527f6f776e6572000000000000000000000000000000000000000000000000000000602082015250565b600061303c602583612481565b915061304782612fe0565b604082019050919050565b6000602082019050818103600083015261306b8161302f565b9050919050565b7f4552433732313a207472616e7366657220746f20746865207a65726f2061646460008201527f7265737300000000000000000000000000000000000000000000000000000000602082015250565b60006130ce602483612481565b91506130d982613072565b604082019050919050565b600060208201905081810360008301526130fd816130c1565b9050919050565b7f4e487b7100000000000000000000000000000000000000000000000000000000600052601160045260246000fd5b600061313e82612531565b915061314983612531565b92508282101561315c5761315b613104565b5b828203905092915050565b600061317282612531565b915061317d83612531565b9250827fffffffffffffffffffffffffffffffffffffffffffffffffffffffffffffffff038211156131b2576131b1613104565b5b828201905092915050565b7f45524337323155524953746f726167653a2055524920736574206f66206e6f6e60008201527f6578697374656e7420746f6b656e000000000000000000000000000000000000602082015250565b6000613219602e83612481565b9150613224826131bd565b604082019050919050565b600060208201905081810360008301526132488161320c565b9050919050565b7f4f776e61626c653a2063616c6c6572206973206e6f7420746865206f776e6572600082015250565b6000613285602083612481565b91506132908261324f565b602082019050919050565b600060208201905081810360008301526132b481613278565b9050919050565b7f4552433732313a20617070726f766520746f2063616c6c657200000000000000600082015250565b60006132f1601983612481565b91506132fc826132bb565b602082019050919050565b60006020820190508181036000830152613320816132e4565b9050919050565b7f4552433732313a207472616e7366657220746f206e6f6e20455243373231526560008201527f63656976657220696d706c656d656e7465720000000000000000000000000000602082015250565b6000613383603283612481565b915061338e82613327565b604082019050919050565b600060208201905081810360008301526133b281613376565b9050919050565b600081905092915050565b60006133cf82612476565b6133d981856133b9565b93506133e9818560208601612492565b80840191505092915050565b600061340182856133c4565b915061340d82846133c4565b91508190509392505050565b600081519050919050565b600082825260208201905092915050565b600061344082613419565b61344a8185613424565b935061345a818560208601612492565b613463816124c5565b840191505092915050565b600060808201905061348360008301876125c6565b61349060208301866125c6565b61349d604083018561265c565b81810360608301526134af8184613435565b905095945050505050565b6000815190506134c9816123e7565b92915050565b6000602082840312156134e5576134e46123b1565b5b60006134f3848285016134ba565b91505092915050565b7f4552433732313a206d696e7420746f20746865207a65726f2061646472657373600082015250565b6000613532602083612481565b915061353d826134fc565b602082019050919050565b6000602082019050818103600083015261356181613525565b9050919050565b7f4552433732313a20746f6b656e20616c7265616479206d696e74656400000000600082015250565b600061359e601c83612481565b91506135a982613568565b602082019050919050565b600060208201905081810360008301526135cd81613591565b9050919050565b60006135df82612531565b91507fffffffffffffffffffffffffffffffffffffffffffffffffffffffffffffffff82141561361257613611613104565b5b600182019050919050565b7f4e487b7100000000000000000000000000000000000000000000000000000000600052601260045260246000fd5b600061365782612531565b915061366283612531565b9250826136725761367161361d565b5b828204905092915050565b600061368882612531565b915061369383612531565b9250826136a3576136a261361d565b5b828206905092915050565b7f4e487b7100000000000000000000000000000000000000000000000000000000600052603160045260246000fdfea2646970667358221220cef1ac75a0899be419b070cf16137c6408eba3b891e0565f7d7891d571ab58de64736f6c63430008090033",
  "linkReferences": {},
  "deployedLinkReferences": {}
}