{
  "_format": "hh-sol-artifact-1",
  "contractName": "SohailNFTCollection",
  "sourceName": "contracts/SohailNFTCollection.sol",
  "abi": [
    {
      "inputs": [],
      "stateMutability": "nonpayable",
      "type": "constructor"
    },
    {
      "anonymous": false,
      "inputs": [
        {
          "indexed": true,
          "internalType": "address",
          "name": "owner",
          "type": "address"
        },
        {
          "indexed": true,
          "internalType": "address",
          "name": "approved",
          "type": "address"
        },
        {
          "indexed": true,
          "internalType": "uint256",
          "name": "tokenId",
          "type": "uint256"
        }
      ],
      "name": "Approval",
      "type": "event"
    },
    {
      "anonymous": false,
      "inputs": [
        {
          "indexed": true,
          "internalType": "address",
          "name": "owner",
          "type": "address"
        },
        {
          "indexed": true,
          "internalType": "address",
          "name": "operator",
          "type": "address"
        },
        {
          "indexed": false,
          "internalType": "bool",
          "name": "approved",
          "type": "bool"
        }
      ],
      "name": "ApprovalForAll",
      "type": "event"
    },
    {
      "anonymous": false,
      "inputs": [
        {
          "indexed": true,
          "internalType": "address",
          "name": "previousOwner",
          "type": "address"
        },
        {
          "indexed": true,
          "internalType": "address",
          "name": "newOwner",
          "type": "address"
        }
      ],
      "name": "OwnershipTransferred",
      "type": "event"
    },
    {
      "anonymous": false,
      "inputs": [
        {
          "indexed": true,
          "internalType": "address",
          "name": "from",
          "type": "address"
        },
        {
          "indexed": true,
          "internalType": "address",
          "name": "to",
          "type": "address"
        },
        {
          "indexed": true,
          "internalType": "uint256",
          "name": "tokenId",
          "type": "uint256"
        }
      ],
      "name": "Transfer",
      "type": "event"
    },
    {
      "inputs": [
        {
          "internalType": "address",
          "name": "to",
          "type": "address"
        },
        {
          "internalType": "uint256",
          "name": "tokenId",
          "type": "uint256"
        }
      ],
      "name": "approve",
      "outputs": [],
      "stateMutability": "nonpayable",
      "type": "function"
    },
    {
      "inputs": [
        {
          "internalType": "address",
          "name": "owner",
          "type": "address"
        }
      ],
      "name": "balanceOf",
      "outputs": [
        {
          "internalType": "uint256",
          "name": "",
          "type": "uint256"
        }
      ],
      "stateMutability": "view",
      "type": "function"
    },
    {
      "inputs": [
        {
          "internalType": "uint256",
          "name": "tokenId",
          "type": "uint256"
        }
      ],
      "name": "getApproved",
      "outputs": [
        {
          "internalType": "address",
          "name": "",
          "type": "address"
        }
      ],
      "stateMutability": "view",
      "type": "function"
    },
    {
      "inputs": [
        {
          "internalType": "address",
          "name": "owner",
          "type": "address"
        },
        {
          "internalType": "address",
          "name": "operator",
          "type": "address"
        }
      ],
      "name": "isApprovedForAll",
      "outputs": [
        {
          "internalType": "bool",
          "name": "",
          "type": "bool"
        }
      ],
      "stateMutability": "view",
      "type": "function"
    },
    {
      "inputs": [],
      "name": "name",
      "outputs": [
        {
          "internalType": "string",
          "name": "",
          "type": "string"
        }
      ],
      "stateMutability": "view",
      "type": "function"
    },
    {
      "inputs": [],
      "name": "owner",
      "outputs": [
        {
          "internalType": "address",
          "name": "",
          "type": "address"
        }
      ],
      "stateMutability": "view",
      "type": "function"
    },
    {
      "inputs": [
        {
          "internalType": "uint256",
          "name": "tokenId",
          "type": "uint256"
        }
      ],
      "name": "ownerOf",
      "outputs": [
        {
          "internalType": "address",
          "name": "",
          "type": "address"
        }
      ],
      "stateMutability": "view",
      "type": "function"
    },
    {
      "inputs": [],
      "name": "owners",
      "outputs": [
        {
          "internalType": "address",
          "name": "",
          "type": "address"
        }
      ],
      "stateMutability": "view",
      "type": "function"
    },
    {
      "inputs": [],
      "name": "renounceOwnership",
      "outputs": [],
      "stateMutability": "nonpayable",
      "type": "function"
    },
    {
      "inputs": [
        {
          "internalType": "string",
          "name": "uri",
          "type": "string"
        }
      ],
      "name": "safeMint",
      "outputs": [],
      "stateMutability": "payable",
      "type": "function"
    },
    {
      "inputs": [
        {
          "internalType": "address",
          "name": "from",
          "type": "address"
        },
        {
          "internalType": "address",
          "name": "to",
          "type": "address"
        },
        {
          "internalType": "uint256",
          "name": "tokenId",
          "type": "uint256"
        }
      ],
      "name": "safeTransferFrom",
      "outputs": [],
      "stateMutability": "nonpayable",
      "type": "function"
    },
    {
      "inputs": [
        {
          "internalType": "address",
          "name": "from",
          "type": "address"
        },
        {
          "internalType": "address",
          "name": "to",
          "type": "address"
        },
        {
          "internalType": "uint256",
          "name": "tokenId",
          "type": "uint256"
        },
        {
          "internalType": "bytes",
          "name": "data",
          "type": "bytes"
        }
      ],
      "name": "safeTransferFrom",
      "outputs": [],
      "stateMutability": "nonpayable",
      "type": "function"
    },
    {
      "inputs": [
        {
          "internalType": "address",
          "name": "operator",
          "type": "address"
        },
        {
          "internalType": "bool",
          "name": "approved",
          "type": "bool"
        }
      ],
      "name": "setApprovalForAll",
      "outputs": [],
      "stateMutability": "nonpayable",
      "type": "function"
    },
    {
      "inputs": [
        {
          "internalType": "bytes4",
          "name": "interfaceId",
          "type": "bytes4"
        }
      ],
      "name": "supportsInterface",
      "outputs": [
        {
          "internalType": "bool",
          "name": "",
          "type": "bool"
        }
      ],
      "stateMutability": "view",
      "type": "function"
    },
    {
      "inputs": [],
      "name": "symbol",
      "outputs": [
        {
          "internalType": "string",
          "name": "",
          "type": "string"
        }
      ],
      "stateMutability": "view",
      "type": "function"
    },
    {
      "inputs": [
        {
          "internalType": "uint256",
          "name": "index",
          "type": "uint256"
        }
      ],
      "name": "tokenByIndex",
      "outputs": [
        {
          "internalType": "uint256",
          "name": "",
          "type": "uint256"
        }
      ],
      "stateMutability": "view",
      "type": "function"
    },
    {
      "inputs": [
        {
          "internalType": "address",
          "name": "owner",
          "type": "address"
        },
        {
          "internalType": "uint256",
          "name": "index",
          "type": "uint256"
        }
      ],
      "name": "tokenOfOwnerByIndex",
      "outputs": [
        {
          "internalType": "uint256",
          "name": "",
          "type": "uint256"
        }
      ],
      "stateMutability": "view",
      "type": "function"
    },
    {
      "inputs": [
        {
          "internalType": "uint256",
          "name": "tokenId",
          "type": "uint256"
        }
      ],
      "name": "tokenURI",
      "outputs": [
        {
          "internalType": "string",
          "name": "",
          "type": "string"
        }
      ],
      "stateMutability": "view",
      "type": "function"
    },
    {
      "inputs": [],
      "name": "totalSupply",
      "outputs": [
        {
          "internalType": "uint256",
          "name": "",
          "type": "uint256"
        }
      ],
      "stateMutability": "view",
      "type": "function"
    },
    {
      "inputs": [
        {
          "internalType": "address",
          "name": "from",
          "type": "address"
        },
        {
          "internalType": "address",
          "name": "to",
          "type": "address"
        },
        {
          "internalType": "uint256",
          "name": "tokenId",
          "type": "uint256"
        }
      ],
      "name": "transferFrom",
      "outputs": [],
      "stateMutability": "nonpayable",
      "type": "function"
    },
    {
      "inputs": [
        {
          "internalType": "address",
          "name": "newOwner",
          "type": "address"
        }
      ],
      "name": "transferOwnership",
      "outputs": [],
      "stateMutability": "nonpayable",
      "type": "function"
    }
  ],
  "bytecode": "0x60806040523480156200001157600080fd5b506040518060400160405280600c81526020017f5347436f6c6c656374696f6e00000000000000000000000000000000000000008152506040518060400160405280600381526020017f53474a0000000000000000000000000000000000000000000000000000000000815250816000908051906020019062000096929190620001e7565b508060019080519060200190620000af929190620001e7565b505050620000d2620000c66200011960201b60201c565b6200012160201b60201c565b33600d60006101000a81548173ffffffffffffffffffffffffffffffffffffffff021916908373ffffffffffffffffffffffffffffffffffffffff160217905550620002fc565b600033905090565b6000600b60009054906101000a900473ffffffffffffffffffffffffffffffffffffffff16905081600b60006101000a81548173ffffffffffffffffffffffffffffffffffffffff021916908373ffffffffffffffffffffffffffffffffffffffff1602179055508173ffffffffffffffffffffffffffffffffffffffff168173ffffffffffffffffffffffffffffffffffffffff167f8be0079c531659141344cd1fd0a4f28419497f9722a3daafe3b4186f6b6457e060405160405180910390a35050565b828054620001f590620002c6565b90600052602060002090601f01602090048101928262000219576000855562000265565b82601f106200023457805160ff191683800117855562000265565b8280016001018555821562000265579182015b828111156200026457825182559160200191906001019062000247565b5b50905062000274919062000278565b5090565b5b808211156200029357600081600090555060010162000279565b5090565b7f4e487b7100000000000000000000000000000000000000000000000000000000600052602260045260246000fd5b60006002820490506001821680620002df57607f821691505b60208210811415620002f657620002f562000297565b5b50919050565b6135cd806200030c6000396000f3fe60806040526004361061012a5760003560e01c8063695850fb116100ab578063a22cb4651161006f578063a22cb465146103f7578063affe39c114610420578063b88d4fde1461044b578063c87b56dd14610474578063e985e9c5146104b1578063f2fde38b146104ee5761012a565b8063695850fb1461033157806370a082311461034d578063715018a61461038a5780638da5cb5b146103a157806395d89b41146103cc5761012a565b806323b872dd116100f257806323b872dd146102285780632f745c591461025157806342842e0e1461028e5780634f6ccce7146102b75780636352211e146102f45761012a565b806301ffc9a71461012f57806306fdde031461016c578063081812fc14610197578063095ea7b3146101d457806318160ddd146101fd575b600080fd5b34801561013b57600080fd5b506101566004803603810190610151919061235f565b610517565b60405161016391906123a7565b60405180910390f35b34801561017857600080fd5b50610181610529565b60405161018e919061245b565b60405180910390f35b3480156101a357600080fd5b506101be60048036038101906101b991906124b3565b6105bb565b6040516101cb9190612521565b60405180910390f35b3480156101e057600080fd5b506101fb60048036038101906101f69190612568565b610601565b005b34801561020957600080fd5b50610212610719565b60405161021f91906125b7565b60405180910390f35b34801561023457600080fd5b5061024f600480360381019061024a91906125d2565b610726565b005b34801561025d57600080fd5b5061027860048036038101906102739190612568565b610786565b60405161028591906125b7565b60405180910390f35b34801561029a57600080fd5b506102b560048036038101906102b091906125d2565b61082b565b005b3480156102c357600080fd5b506102de60048036038101906102d991906124b3565b61084b565b6040516102eb91906125b7565b60405180910390f35b34801561030057600080fd5b5061031b600480360381019061031691906124b3565b6108bc565b6040516103289190612521565b60405180910390f35b61034b6004803603810190610346919061275a565b61096e565b005b34801561035957600080fd5b50610374600480360381019061036f91906127a3565b6109ed565b60405161038191906125b7565b60405180910390f35b34801561039657600080fd5b5061039f610aa5565b005b3480156103ad57600080fd5b506103b6610ab9565b6040516103c39190612521565b60405180910390f35b3480156103d857600080fd5b506103e1610ae3565b6040516103ee919061245b565b60405180910390f35b34801561040357600080fd5b5061041e600480360381019061041991906127fc565b610b75565b005b34801561042c57600080fd5b50610435610b8b565b6040516104429190612521565b60405180910390f35b34801561045757600080fd5b50610472600480360381019061046d91906128dd565b610bb1565b005b34801561048057600080fd5b5061049b600480360381019061049691906124b3565b610c13565b6040516104a8919061245b565b60405180910390f35b3480156104bd57600080fd5b506104d860048036038101906104d39190612960565b610c25565b6040516104e591906123a7565b60405180910390f35b3480156104fa57600080fd5b50610515600480360381019061051091906127a3565b610cb9565b005b600061052282610d3d565b9050919050565b606060008054610538906129cf565b80601f0160208091040260200160405190810160405280929190818152602001828054610564906129cf565b80156105b15780601f10610586576101008083540402835291602001916105b1565b820191906000526020600020905b81548152906001019060200180831161059457829003601f168201915b5050505050905090565b60006105c682610db7565b6004600083815260200190815260200160002060009054906101000a900473ffffffffffffffffffffffffffffffffffffffff169050919050565b600061060c826108bc565b90508073ffffffffffffffffffffffffffffffffffffffff168373ffffffffffffffffffffffffffffffffffffffff16141561067d576040517f08c379a000000000000000000000000000000000000000000000000000000000815260040161067490612a73565b60405180910390fd5b8073ffffffffffffffffffffffffffffffffffffffff1661069c610e02565b73ffffffffffffffffffffffffffffffffffffffff1614806106cb57506106ca816106c5610e02565b610c25565b5b61070a576040517f08c379a000000000000000000000000000000000000000000000000000000000815260040161070190612b05565b60405180910390fd5b6107148383610e0a565b505050565b6000600880549050905090565b610737610731610e02565b82610ec3565b610776576040517f08c379a000000000000000000000000000000000000000000000000000000000815260040161076d90612b97565b60405180910390fd5b610781838383610f58565b505050565b6000610791836109ed565b82106107d2576040517f08c379a00000000000000000000000000000000000000000000000000000000081526004016107c990612c29565b60405180910390fd5b600660008473ffffffffffffffffffffffffffffffffffffffff1673ffffffffffffffffffffffffffffffffffffffff168152602001908152602001600020600083815260200190815260200160002054905092915050565b61084683838360405180602001604052806000815250610bb1565b505050565b6000610855610719565b8210610896576040517f08c379a000000000000000000000000000000000000000000000000000000000815260040161088d90612cbb565b60405180910390fd5b600882815481106108aa576108a9612cdb565b5b90600052602060002001549050919050565b6000806002600084815260200190815260200160002060009054906101000a900473ffffffffffffffffffffffffffffffffffffffff169050600073ffffffffffffffffffffffffffffffffffffffff168173ffffffffffffffffffffffffffffffffffffffff161415610965576040517f08c379a000000000000000000000000000000000000000000000000000000000815260040161095c90612d56565b60405180910390fd5b80915050919050565b610978600c6111bf565b6000610984600c6111d5565b90506109b2600d60009054906101000a900473ffffffffffffffffffffffffffffffffffffffff16826111e3565b6109bc8183611201565b6109e9600d60009054906101000a900473ffffffffffffffffffffffffffffffffffffffff163383610f58565b5050565b60008073ffffffffffffffffffffffffffffffffffffffff168273ffffffffffffffffffffffffffffffffffffffff161415610a5e576040517f08c379a0000000000000000000000000000000000000000000000000000000008152600401610a5590612de8565b60405180910390fd5b600360008373ffffffffffffffffffffffffffffffffffffffff1673ffffffffffffffffffffffffffffffffffffffff168152602001908152602001600020549050919050565b610aad611275565b610ab760006112f3565b565b6000600b60009054906101000a900473ffffffffffffffffffffffffffffffffffffffff16905090565b606060018054610af2906129cf565b80601f0160208091040260200160405190810160405280929190818152602001828054610b1e906129cf565b8015610b6b5780601f10610b4057610100808354040283529160200191610b6b565b820191906000526020600020905b815481529060010190602001808311610b4e57829003601f168201915b5050505050905090565b610b87610b80610e02565b83836113b9565b5050565b600d60009054906101000a900473ffffffffffffffffffffffffffffffffffffffff1681565b610bc2610bbc610e02565b83610ec3565b610c01576040517f08c379a0000000000000000000000000000000000000000000000000000000008152600401610bf890612b97565b60405180910390fd5b610c0d84848484611526565b50505050565b6060610c1e82611582565b9050919050565b6000600560008473ffffffffffffffffffffffffffffffffffffffff1673ffffffffffffffffffffffffffffffffffffffff16815260200190815260200160002060008373ffffffffffffffffffffffffffffffffffffffff1673ffffffffffffffffffffffffffffffffffffffff16815260200190815260200160002060009054906101000a900460ff16905092915050565b610cc1611275565b600073ffffffffffffffffffffffffffffffffffffffff168173ffffffffffffffffffffffffffffffffffffffff161415610d31576040517f08c379a0000000000000000000000000000000000000000000000000000000008152600401610d2890612e7a565b60405180910390fd5b610d3a816112f3565b50565b60007f780e9d63000000000000000000000000000000000000000000000000000000007bffffffffffffffffffffffffffffffffffffffffffffffffffffffff1916827bffffffffffffffffffffffffffffffffffffffffffffffffffffffff19161480610db05750610daf82611695565b5b9050919050565b610dc081611777565b610dff576040517f08c379a0000000000000000000000000000000000000000000000000000000008152600401610df690612d56565b60405180910390fd5b50565b600033905090565b816004600083815260200190815260200160002060006101000a81548173ffffffffffffffffffffffffffffffffffffffff021916908373ffffffffffffffffffffffffffffffffffffffff160217905550808273ffffffffffffffffffffffffffffffffffffffff16610e7d836108bc565b73ffffffffffffffffffffffffffffffffffffffff167f8c5be1e5ebec7d5bd14f71427d1e84f3dd0314c0f7b2291e5b200ac8c7c3b92560405160405180910390a45050565b600080610ecf836108bc565b90508073ffffffffffffffffffffffffffffffffffffffff168473ffffffffffffffffffffffffffffffffffffffff161480610f115750610f108185610c25565b5b80610f4f57508373ffffffffffffffffffffffffffffffffffffffff16610f37846105bb565b73ffffffffffffffffffffffffffffffffffffffff16145b91505092915050565b8273ffffffffffffffffffffffffffffffffffffffff16610f78826108bc565b73ffffffffffffffffffffffffffffffffffffffff1614610fce576040517f08c379a0000000000000000000000000000000000000000000000000000000008152600401610fc590612f0c565b60405180910390fd5b600073ffffffffffffffffffffffffffffffffffffffff168273ffffffffffffffffffffffffffffffffffffffff16141561103e576040517f08c379a000000000000000000000000000000000000000000000000000000000815260040161103590612f9e565b60405180910390fd5b6110498383836117e3565b611054600082610e0a565b6001600360008573ffffffffffffffffffffffffffffffffffffffff1673ffffffffffffffffffffffffffffffffffffffff16815260200190815260200160002060008282546110a49190612fed565b925050819055506001600360008473ffffffffffffffffffffffffffffffffffffffff1673ffffffffffffffffffffffffffffffffffffffff16815260200190815260200160002060008282546110fb9190613021565b92505081905550816002600083815260200190815260200160002060006101000a81548173ffffffffffffffffffffffffffffffffffffffff021916908373ffffffffffffffffffffffffffffffffffffffff160217905550808273ffffffffffffffffffffffffffffffffffffffff168473ffffffffffffffffffffffffffffffffffffffff167fddf252ad1be2c89b69c2b068fc378daa952ba7f163c4a11628f55a4df523b3ef60405160405180910390a46111ba8383836117f3565b505050565b6001816000016000828254019250508190555050565b600081600001549050919050565b6111fd8282604051806020016040528060008152506117f8565b5050565b61120a82611777565b611249576040517f08c379a0000000000000000000000000000000000000000000000000000000008152600401611240906130e9565b60405180910390fd5b80600a60008481526020019081526020016000209080519060200190611270929190612250565b505050565b61127d610e02565b73ffffffffffffffffffffffffffffffffffffffff1661129b610ab9565b73ffffffffffffffffffffffffffffffffffffffff16146112f1576040517f08c379a00000000000000000000000000000000000000000000000000000000081526004016112e890613155565b60405180910390fd5b565b6000600b60009054906101000a900473ffffffffffffffffffffffffffffffffffffffff16905081600b60006101000a81548173ffffffffffffffffffffffffffffffffffffffff021916908373ffffffffffffffffffffffffffffffffffffffff1602179055508173ffffffffffffffffffffffffffffffffffffffff168173ffffffffffffffffffffffffffffffffffffffff167f8be0079c531659141344cd1fd0a4f28419497f9722a3daafe3b4186f6b6457e060405160405180910390a35050565b8173ffffffffffffffffffffffffffffffffffffffff168373ffffffffffffffffffffffffffffffffffffffff161415611428576040517f08c379a000000000000000000000000000000000000000000000000000000000815260040161141f906131c1565b60405180910390fd5b80600560008573ffffffffffffffffffffffffffffffffffffffff1673ffffffffffffffffffffffffffffffffffffffff16815260200190815260200160002060008473ffffffffffffffffffffffffffffffffffffffff1673ffffffffffffffffffffffffffffffffffffffff16815260200190815260200160002060006101000a81548160ff0219169083151502179055508173ffffffffffffffffffffffffffffffffffffffff168373ffffffffffffffffffffffffffffffffffffffff167f17307eab39ab6107e8899845ad3d59bd9653f200f220920489ca2b5937696c318360405161151991906123a7565b60405180910390a3505050565b611531848484610f58565b61153d84848484611853565b61157c576040517f08c379a000000000000000000000000000000000000000000000000000000000815260040161157390613253565b60405180910390fd5b50505050565b606061158d82610db7565b6000600a600084815260200190815260200160002080546115ad906129cf565b80601f01602080910402602001604051908101604052809291908181526020018280546115d9906129cf565b80156116265780601f106115fb57610100808354040283529160200191611626565b820191906000526020600020905b81548152906001019060200180831161160957829003601f168201915b5050505050905060006116376119ea565b905060008151141561164d578192505050611690565b60008251111561168257808260405160200161166a9291906132af565b60405160208183030381529060405292505050611690565b61168b84611a01565b925050505b919050565b60007f80ac58cd000000000000000000000000000000000000000000000000000000007bffffffffffffffffffffffffffffffffffffffffffffffffffffffff1916827bffffffffffffffffffffffffffffffffffffffffffffffffffffffff1916148061176057507f5b5e139f000000000000000000000000000000000000000000000000000000007bffffffffffffffffffffffffffffffffffffffffffffffffffffffff1916827bffffffffffffffffffffffffffffffffffffffffffffffffffffffff1916145b80611770575061176f82611a69565b5b9050919050565b60008073ffffffffffffffffffffffffffffffffffffffff166002600084815260200190815260200160002060009054906101000a900473ffffffffffffffffffffffffffffffffffffffff1673ffffffffffffffffffffffffffffffffffffffff1614159050919050565b6117ee838383611ad3565b505050565b505050565b6118028383611be7565b61180f6000848484611853565b61184e576040517f08c379a000000000000000000000000000000000000000000000000000000000815260040161184590613253565b60405180910390fd5b505050565b60006118748473ffffffffffffffffffffffffffffffffffffffff16611dc1565b156119dd578373ffffffffffffffffffffffffffffffffffffffff1663150b7a0261189d610e02565b8786866040518563ffffffff1660e01b81526004016118bf9493929190613328565b602060405180830381600087803b1580156118d957600080fd5b505af192505050801561190a57506040513d601f19601f820116820180604052508101906119079190613389565b60015b61198d573d806000811461193a576040519150601f19603f3d011682016040523d82523d6000602084013e61193f565b606091505b50600081511415611985576040517f08c379a000000000000000000000000000000000000000000000000000000000815260040161197c90613253565b60405180910390fd5b805181602001fd5b63150b7a0260e01b7bffffffffffffffffffffffffffffffffffffffffffffffffffffffff1916817bffffffffffffffffffffffffffffffffffffffffffffffffffffffff1916149150506119e2565b600190505b949350505050565b606060405180602001604052806000815250905090565b6060611a0c82610db7565b6000611a166119ea565b90506000815111611a365760405180602001604052806000815250611a61565b80611a4084611de4565b604051602001611a519291906132af565b6040516020818303038152906040525b915050919050565b60007f01ffc9a7000000000000000000000000000000000000000000000000000000007bffffffffffffffffffffffffffffffffffffffffffffffffffffffff1916827bffffffffffffffffffffffffffffffffffffffffffffffffffffffff1916149050919050565b611ade838383611f45565b600073ffffffffffffffffffffffffffffffffffffffff168373ffffffffffffffffffffffffffffffffffffffff161415611b2157611b1c81611f4a565b611b60565b8173ffffffffffffffffffffffffffffffffffffffff168373ffffffffffffffffffffffffffffffffffffffff1614611b5f57611b5e8382611f93565b5b5b600073ffffffffffffffffffffffffffffffffffffffff168273ffffffffffffffffffffffffffffffffffffffff161415611ba357611b9e81612100565b611be2565b8273ffffffffffffffffffffffffffffffffffffffff168273ffffffffffffffffffffffffffffffffffffffff1614611be157611be082826121d1565b5b5b505050565b600073ffffffffffffffffffffffffffffffffffffffff168273ffffffffffffffffffffffffffffffffffffffff161415611c57576040517f08c379a0000000000000000000000000000000000000000000000000000000008152600401611c4e90613402565b60405180910390fd5b611c6081611777565b15611ca0576040517f08c379a0000000000000000000000000000000000000000000000000000000008152600401611c979061346e565b60405180910390fd5b611cac600083836117e3565b6001600360008473ffffffffffffffffffffffffffffffffffffffff1673ffffffffffffffffffffffffffffffffffffffff1681526020019081526020016000206000828254611cfc9190613021565b92505081905550816002600083815260200190815260200160002060006101000a81548173ffffffffffffffffffffffffffffffffffffffff021916908373ffffffffffffffffffffffffffffffffffffffff160217905550808273ffffffffffffffffffffffffffffffffffffffff16600073ffffffffffffffffffffffffffffffffffffffff167fddf252ad1be2c89b69c2b068fc378daa952ba7f163c4a11628f55a4df523b3ef60405160405180910390a4611dbd600083836117f3565b5050565b6000808273ffffffffffffffffffffffffffffffffffffffff163b119050919050565b60606000821415611e2c576040518060400160405280600181526020017f30000000000000000000000000000000000000000000000000000000000000008152509050611f40565b600082905060005b60008214611e5e578080611e479061348e565b915050600a82611e579190613506565b9150611e34565b60008167ffffffffffffffff811115611e7a57611e7961262f565b5b6040519080825280601f01601f191660200182016040528015611eac5781602001600182028036833780820191505090505b5090505b60008514611f3957600182611ec59190612fed565b9150600a85611ed49190613537565b6030611ee09190613021565b60f81b818381518110611ef657611ef5612cdb565b5b60200101907effffffffffffffffffffffffffffffffffffffffffffffffffffffffffffff1916908160001a905350600a85611f329190613506565b9450611eb0565b8093505050505b919050565b505050565b6008805490506009600083815260200190815260200160002081905550600881908060018154018082558091505060019003906000526020600020016000909190919091505550565b60006001611fa0846109ed565b611faa9190612fed565b905060006007600084815260200190815260200160002054905081811461208f576000600660008673ffffffffffffffffffffffffffffffffffffffff1673ffffffffffffffffffffffffffffffffffffffff168152602001908152602001600020600084815260200190815260200160002054905080600660008773ffffffffffffffffffffffffffffffffffffffff1673ffffffffffffffffffffffffffffffffffffffff168152602001908152602001600020600084815260200190815260200160002081905550816007600083815260200190815260200160002081905550505b6007600084815260200190815260200160002060009055600660008573ffffffffffffffffffffffffffffffffffffffff1673ffffffffffffffffffffffffffffffffffffffff16815260200190815260200160002060008381526020019081526020016000206000905550505050565b600060016008805490506121149190612fed565b905060006009600084815260200190815260200160002054905060006008838154811061214457612143612cdb565b5b90600052602060002001549050806008838154811061216657612165612cdb565b5b9060005260206000200181905550816009600083815260200190815260200160002081905550600960008581526020019081526020016000206000905560088054806121b5576121b4613568565b5b6001900381819060005260206000200160009055905550505050565b60006121dc836109ed565b905081600660008573ffffffffffffffffffffffffffffffffffffffff1673ffffffffffffffffffffffffffffffffffffffff168152602001908152602001600020600083815260200190815260200160002081905550806007600084815260200190815260200160002081905550505050565b82805461225c906129cf565b90600052602060002090601f01602090048101928261227e57600085556122c5565b82601f1061229757805160ff19168380011785556122c5565b828001600101855582156122c5579182015b828111156122c45782518255916020019190600101906122a9565b5b5090506122d291906122d6565b5090565b5b808211156122ef5760008160009055506001016122d7565b5090565b6000604051905090565b600080fd5b600080fd5b60007fffffffff0000000000000000000000000000000000000000000000000000000082169050919050565b61233c81612307565b811461234757600080fd5b50565b60008135905061235981612333565b92915050565b600060208284031215612375576123746122fd565b5b60006123838482850161234a565b91505092915050565b60008115159050919050565b6123a18161238c565b82525050565b60006020820190506123bc6000830184612398565b92915050565b600081519050919050565b600082825260208201905092915050565b60005b838110156123fc5780820151818401526020810190506123e1565b8381111561240b576000848401525b50505050565b6000601f19601f8301169050919050565b600061242d826123c2565b61243781856123cd565b93506124478185602086016123de565b61245081612411565b840191505092915050565b600060208201905081810360008301526124758184612422565b905092915050565b6000819050919050565b6124908161247d565b811461249b57600080fd5b50565b6000813590506124ad81612487565b92915050565b6000602082840312156124c9576124c86122fd565b5b60006124d78482850161249e565b91505092915050565b600073ffffffffffffffffffffffffffffffffffffffff82169050919050565b600061250b826124e0565b9050919050565b61251b81612500565b82525050565b60006020820190506125366000830184612512565b92915050565b61254581612500565b811461255057600080fd5b50565b6000813590506125628161253c565b92915050565b6000806040838503121561257f5761257e6122fd565b5b600061258d85828601612553565b925050602061259e8582860161249e565b9150509250929050565b6125b18161247d565b82525050565b60006020820190506125cc60008301846125a8565b92915050565b6000806000606084860312156125eb576125ea6122fd565b5b60006125f986828701612553565b935050602061260a86828701612553565b925050604061261b8682870161249e565b9150509250925092565b600080fd5b600080fd5b7f4e487b7100000000000000000000000000000000000000000000000000000000600052604160045260246000fd5b61266782612411565b810181811067ffffffffffffffff821117156126865761268561262f565b5b80604052505050565b60006126996122f3565b90506126a5828261265e565b919050565b600067ffffffffffffffff8211156126c5576126c461262f565b5b6126ce82612411565b9050602081019050919050565b82818337600083830152505050565b60006126fd6126f8846126aa565b61268f565b9050828152602081018484840111156127195761271861262a565b5b6127248482856126db565b509392505050565b600082601f83011261274157612740612625565b5b81356127518482602086016126ea565b91505092915050565b6000602082840312156127705761276f6122fd565b5b600082013567ffffffffffffffff81111561278e5761278d612302565b5b61279a8482850161272c565b91505092915050565b6000602082840312156127b9576127b86122fd565b5b60006127c784828501612553565b91505092915050565b6127d98161238c565b81146127e457600080fd5b50565b6000813590506127f6816127d0565b92915050565b60008060408385031215612813576128126122fd565b5b600061282185828601612553565b9250506020612832858286016127e7565b9150509250929050565b600067ffffffffffffffff8211156128575761285661262f565b5b61286082612411565b9050602081019050919050565b600061288061287b8461283c565b61268f565b90508281526020810184848401111561289c5761289b61262a565b5b6128a78482856126db565b509392505050565b600082601f8301126128c4576128c3612625565b5b81356128d484826020860161286d565b91505092915050565b600080600080608085870312156128f7576128f66122fd565b5b600061290587828801612553565b945050602061291687828801612553565b93505060406129278782880161249e565b925050606085013567ffffffffffffffff81111561294857612947612302565b5b612954878288016128af565b91505092959194509250565b60008060408385031215612977576129766122fd565b5b600061298585828601612553565b925050602061299685828601612553565b9150509250929050565b7f4e487b7100000000000000000000000000000000000000000000000000000000600052602260045260246000fd5b600060028204905060018216806129e757607f821691505b602082108114156129fb576129fa6129a0565b5b50919050565b7f4552433732313a20617070726f76616c20746f2063757272656e74206f776e6560008201527f7200000000000000000000000000000000000000000000000000000000000000602082015250565b6000612a5d6021836123cd565b9150612a6882612a01565b604082019050919050565b60006020820190508181036000830152612a8c81612a50565b9050919050565b7f4552433732313a20617070726f76652063616c6c6572206973206e6f7420746f60008201527f6b656e206f776e6572206e6f7220617070726f76656420666f7220616c6c0000602082015250565b6000612aef603e836123cd565b9150612afa82612a93565b604082019050919050565b60006020820190508181036000830152612b1e81612ae2565b9050919050565b7f4552433732313a2063616c6c6572206973206e6f7420746f6b656e206f776e6560008201527f72206e6f7220617070726f766564000000000000000000000000000000000000602082015250565b6000612b81602e836123cd565b9150612b8c82612b25565b604082019050919050565b60006020820190508181036000830152612bb081612b74565b9050919050565b7f455243373231456e756d657261626c653a206f776e657220696e646578206f7560008201527f74206f6620626f756e6473000000000000000000000000000000000000000000602082015250565b6000612c13602b836123cd565b9150612c1e82612bb7565b604082019050919050565b60006020820190508181036000830152612c4281612c06565b9050919050565b7f455243373231456e756d657261626c653a20676c6f62616c20696e646578206f60008201527f7574206f6620626f756e64730000000000000000000000000000000000000000602082015250565b6000612ca5602c836123cd565b9150612cb082612c49565b604082019050919050565b60006020820190508181036000830152612cd481612c98565b9050919050565b7f4e487b7100000000000000000000000000000000000000000000000000000000600052603260045260246000fd5b7f4552433732313a20696e76616c696420746f6b656e2049440000000000000000600082015250565b6000612d406018836123cd565b9150612d4b82612d0a565b602082019050919050565b60006020820190508181036000830152612d6f81612d33565b9050919050565b7f4552433732313a2061646472657373207a65726f206973206e6f74206120766160008201527f6c6964206f776e65720000000000000000000000000000000000000000000000602082015250565b6000612dd26029836123cd565b9150612ddd82612d76565b604082019050919050565b60006020820190508181036000830152612e0181612dc5565b9050919050565b7f4f776e61626c653a206e6577206f776e657220697320746865207a65726f206160008201527f6464726573730000000000000000000000000000000000000000000000000000602082015250565b6000612e646026836123cd565b9150612e6f82612e08565b604082019050919050565b60006020820190508181036000830152612e9381612e57565b9050919050565b7f4552433732313a207472616e736665722066726f6d20696e636f72726563742060008201527f6f776e6572000000000000000000000000000000000000000000000000000000602082015250565b6000612ef66025836123cd565b9150612f0182612e9a565b604082019050919050565b60006020820190508181036000830152612f2581612ee9565b9050919050565b7f4552433732313a207472616e7366657220746f20746865207a65726f2061646460008201527f7265737300000000000000000000000000000000000000000000000000000000602082015250565b6000612f886024836123cd565b9150612f9382612f2c565b604082019050919050565b60006020820190508181036000830152612fb781612f7b565b9050919050565b7f4e487b7100000000000000000000000000000000000000000000000000000000600052601160045260246000fd5b6000612ff88261247d565b91506130038361247d565b92508282101561301657613015612fbe565b5b828203905092915050565b600061302c8261247d565b91506130378361247d565b9250827fffffffffffffffffffffffffffffffffffffffffffffffffffffffffffffffff0382111561306c5761306b612fbe565b5b828201905092915050565b7f45524337323155524953746f726167653a2055524920736574206f66206e6f6e60008201527f6578697374656e7420746f6b656e000000000000000000000000000000000000602082015250565b60006130d3602e836123cd565b91506130de82613077565b604082019050919050565b60006020820190508181036000830152613102816130c6565b9050919050565b7f4f776e61626c653a2063616c6c6572206973206e6f7420746865206f776e6572600082015250565b600061313f6020836123cd565b915061314a82613109565b602082019050919050565b6000602082019050818103600083015261316e81613132565b9050919050565b7f4552433732313a20617070726f766520746f2063616c6c657200000000000000600082015250565b60006131ab6019836123cd565b91506131b682613175565b602082019050919050565b600060208201905081810360008301526131da8161319e565b9050919050565b7f4552433732313a207472616e7366657220746f206e6f6e20455243373231526560008201527f63656976657220696d706c656d656e7465720000000000000000000000000000602082015250565b600061323d6032836123cd565b9150613248826131e1565b604082019050919050565b6000602082019050818103600083015261326c81613230565b9050919050565b600081905092915050565b6000613289826123c2565b6132938185613273565b93506132a38185602086016123de565b80840191505092915050565b60006132bb828561327e565b91506132c7828461327e565b91508190509392505050565b600081519050919050565b600082825260208201905092915050565b60006132fa826132d3565b61330481856132de565b93506133148185602086016123de565b61331d81612411565b840191505092915050565b600060808201905061333d6000830187612512565b61334a6020830186612512565b61335760408301856125a8565b818103606083015261336981846132ef565b905095945050505050565b60008151905061338381612333565b92915050565b60006020828403121561339f5761339e6122fd565b5b60006133ad84828501613374565b91505092915050565b7f4552433732313a206d696e7420746f20746865207a65726f2061646472657373600082015250565b60006133ec6020836123cd565b91506133f7826133b6565b602082019050919050565b6000602082019050818103600083015261341b816133df565b9050919050565b7f4552433732313a20746f6b656e20616c7265616479206d696e74656400000000600082015250565b6000613458601c836123cd565b915061346382613422565b602082019050919050565b600060208201905081810360008301526134878161344b565b9050919050565b60006134998261247d565b91507fffffffffffffffffffffffffffffffffffffffffffffffffffffffffffffffff8214156134cc576134cb612fbe565b5b600182019050919050565b7f4e487b7100000000000000000000000000000000000000000000000000000000600052601260045260246000fd5b60006135118261247d565b915061351c8361247d565b92508261352c5761352b6134d7565b5b828204905092915050565b60006135428261247d565b915061354d8361247d565b92508261355d5761355c6134d7565b5b828206905092915050565b7f4e487b7100000000000000000000000000000000000000000000000000000000600052603160045260246000fdfea26469706673582212203444ee349c679ae9ad3ca3ba539ebff84672570b98115f3048afacb39e85193e64736f6c63430008090033",
  "linkReferences": {},
  "deployedLinkReferences": {}
}